{
  "contractName": "ProjectCreator",
  "abi": [
    {
      "anonymous": false,
      "inputs": [
        {
          "indexed": false,
          "internalType": "address",
          "name": "_from",
          "type": "address"
        },
        {
          "indexed": false,
          "internalType": "uint256",
          "name": "_projectIndex",
          "type": "uint256"
        }
      ],
      "name": "ProjectCreated",
      "type": "event"
    },
    {
      "inputs": [
        {
          "internalType": "uint256",
          "name": "",
          "type": "uint256"
        }
      ],
      "name": "deployedProjects",
      "outputs": [
        {
          "internalType": "contract Project",
          "name": "",
          "type": "address"
        }
      ],
      "stateMutability": "view",
      "type": "function",
      "constant": true
    },
    {
      "inputs": [
        {
          "internalType": "string",
          "name": "_projectTitle",
          "type": "string"
        },
        {
          "internalType": "string",
          "name": "_projectDesc",
          "type": "string"
        },
        {
          "internalType": "uint256",
          "name": "_minContributionAmount",
          "type": "uint256"
        },
        {
          "internalType": "string",
          "name": "_imgUrl",
          "type": "string"
        },
        {
          "internalType": "string",
          "name": "_folderUrl",
          "type": "string"
        },
        {
          "internalType": "bool",
          "name": "_isMap",
          "type": "bool"
        },
        {
          "internalType": "string",
          "name": "_postalAddress",
          "type": "string"
        },
        {
          "internalType": "string",
          "name": "_latitude",
          "type": "string"
        },
        {
          "internalType": "string",
          "name": "_longitude",
          "type": "string"
        },
        {
          "internalType": "string",
          "name": "_placeName",
          "type": "string"
        }
      ],
      "name": "deployProject",
      "outputs": [],
      "stateMutability": "nonpayable",
      "type": "function"
    },
    {
      "inputs": [],
      "name": "getDeployedProjects",
      "outputs": [
        {
          "internalType": "contract Project[]",
          "name": "",
          "type": "address[]"
        }
      ],
      "stateMutability": "view",
      "type": "function",
      "constant": true
    }
  ],
  "bytecode": "0x6080604052600060015534801561001557600080fd5b50615ad3806100256000396000f3fe60806040523480156200001157600080fd5b5060043610620000465760003560e01c806302191c94146200004b5780637ac3886e146200006b5780639ec6deaf146200008d575b600080fd5b62000069600480360381019062000063919062000372565b620000c3565b005b62000075620001e8565b604051620000849190620006d9565b60405180910390f35b620000ab6004803603810190620000a5919062000560565b62000278565b604051620000ba9190620006fd565b60405180910390f35b60008a8a8a8a8a8a8a8a8a8a33604051620000de90620002b8565b620000f49b9a999897969594939291906200071a565b604051809103906000f08015801562000111573d6000803e3d6000fd5b5090506000819080600181540180825580915050600190039060005260206000200160009091909190916101000a81548173ffffffffffffffffffffffffffffffffffffffff021916908373ffffffffffffffffffffffffffffffffffffffff160217905550600160008154809291906200018c9062000a03565b91905055507f20bfd29f3d906f96fc35742fac45a554b19cbd4e21f8c4c1d84cb58fdfc32c893360018054620001c39190620008c7565b604051620001d3929190620006ac565b60405180910390a15050505050505050505050565b606060008054806020026020016040519081016040528092919081815260200182805480156200026e57602002820191906000526020600020905b8160009054906101000a900473ffffffffffffffffffffffffffffffffffffffff1673ffffffffffffffffffffffffffffffffffffffff168152602001906001019080831162000223575b5050505050905090565b600081815481106200028957600080fd5b906000526020600020016000915054906101000a900473ffffffffffffffffffffffffffffffffffffffff1681565b614f958062000b0983390190565b6000620002dd620002d7846200083c565b62000813565b905082815260208101848484011115620002fc57620002fb62000ab4565b5b6200030984828562000988565b509392505050565b600081359050620003228162000ad4565b92915050565b600082601f83011262000340576200033f62000aaf565b5b813562000352848260208601620002c6565b91505092915050565b6000813590506200036c8162000aee565b92915050565b6000806000806000806000806000806101408b8d03121562000399576200039862000abe565b5b60008b013567ffffffffffffffff811115620003ba57620003b962000ab9565b5b620003c88d828e0162000328565b9a505060208b013567ffffffffffffffff811115620003ec57620003eb62000ab9565b5b620003fa8d828e0162000328565b99505060406200040d8d828e016200035b565b98505060608b013567ffffffffffffffff81111562000431576200043062000ab9565b5b6200043f8d828e0162000328565b97505060808b013567ffffffffffffffff81111562000463576200046262000ab9565b5b620004718d828e0162000328565b96505060a0620004848d828e0162000311565b95505060c08b013567ffffffffffffffff811115620004a857620004a762000ab9565b5b620004b68d828e0162000328565b94505060e08b013567ffffffffffffffff811115620004da57620004d962000ab9565b5b620004e88d828e0162000328565b9350506101008b013567ffffffffffffffff8111156200050d576200050c62000ab9565b5b6200051b8d828e0162000328565b9250506101208b013567ffffffffffffffff81111562000540576200053f62000ab9565b5b6200054e8d828e0162000328565b9150509295989b9194979a5092959850565b60006020828403121562000579576200057862000abe565b5b600062000589848285016200035b565b91505092915050565b6000620005a0838362000638565b60208301905092915050565b620005b78162000902565b82525050565b6000620005ca8262000882565b620005d68185620008a5565b9350620005e38362000872565b8060005b838110156200061a578151620005fe888262000592565b97506200060b8362000898565b925050600181019050620005e7565b5085935050505092915050565b620006328162000916565b82525050565b62000643816200094c565b82525050565b62000654816200094c565b82525050565b600062000667826200088d565b620006738185620008b6565b93506200068581856020860162000997565b620006908162000ac3565b840191505092915050565b620006a68162000942565b82525050565b6000604082019050620006c36000830185620005ac565b620006d260208301846200069b565b9392505050565b60006020820190508181036000830152620006f58184620005bd565b905092915050565b600060208201905062000714600083018462000649565b92915050565b600061016082019050818103600083015262000737818e6200065a565b905081810360208301526200074d818d6200065a565b90506200075e604083018c6200069b565b818103606083015262000772818b6200065a565b9050818103608083015262000788818a6200065a565b90506200079960a083018962000627565b81810360c0830152620007ad81886200065a565b905081810360e0830152620007c381876200065a565b9050818103610100830152620007da81866200065a565b9050818103610120830152620007f181856200065a565b905062000803610140830184620005ac565b9c9b505050505050505050505050565b60006200081f62000832565b90506200082d8282620009cd565b919050565b6000604051905090565b600067ffffffffffffffff8211156200085a576200085962000a80565b5b620008658262000ac3565b9050602081019050919050565b6000819050602082019050919050565b600081519050919050565b600081519050919050565b6000602082019050919050565b600082825260208201905092915050565b600082825260208201905092915050565b6000620008d48262000942565b9150620008e18362000942565b925082821015620008f757620008f662000a51565b5b828203905092915050565b60006200090f8262000922565b9050919050565b60008115159050919050565b600073ffffffffffffffffffffffffffffffffffffffff82169050919050565b6000819050919050565b6000620009598262000960565b9050919050565b60006200096d8262000974565b9050919050565b6000620009818262000922565b9050919050565b82818337600083830152505050565b60005b83811015620009b75780820151818401526020810190506200099a565b83811115620009c7576000848401525b50505050565b620009d88262000ac3565b810181811067ffffffffffffffff82111715620009fa57620009f962000a80565b5b80604052505050565b600062000a108262000942565b91507fffffffffffffffffffffffffffffffffffffffffffffffffffffffffffffffff82141562000a465762000a4562000a51565b5b600182019050919050565b7f4e487b7100000000000000000000000000000000000000000000000000000000600052601160045260246000fd5b7f4e487b7100000000000000000000000000000000000000000000000000000000600052604160045260246000fd5b600080fd5b600080fd5b600080fd5b600080fd5b6000601f19601f8301169050919050565b62000adf8162000916565b811462000aeb57600080fd5b50565b62000af98162000942565b811462000b0557600080fd5b5056fe60806040526000600e5573087f5052fbcd7c02dd45fb9907c57f1eccc2be25601560006101000a81548173ffffffffffffffffffffffffffffffffffffffff021916908373ffffffffffffffffffffffffffffffffffffffff160217905550601560009054906101000a900473ffffffffffffffffffffffffffffffffffffffff16601660006101000a81548173ffffffffffffffffffffffffffffffffffffffff021916908373ffffffffffffffffffffffffffffffffffffffff1602179055506000601960006101000a81548160ff021916908315150217905550348015620000e957600080fd5b5060405162004f9538038062004f9583398181016040528101906200010f919062000496565b80600b60006101000a81548173ffffffffffffffffffffffffffffffffffffffff021916908373ffffffffffffffffffffffffffffffffffffffff160217905550600b60009054906101000a900473ffffffffffffffffffffffffffffffffffffffff166000800160006101000a81548173ffffffffffffffffffffffffffffffffffffffff021916908373ffffffffffffffffffffffffffffffffffffffff1602179055508a60006001019080519060200190620001d092919062000323565b508960006002019080519060200190620001ec92919062000323565b5087600060030190805190602001906200020892919062000323565b5086600060040190805190602001906200022492919062000323565b508860006005018190555085600060060160006101000a81548160ff02191690831515021790555084600060070190805190602001906200026792919062000323565b5083600060080190805190602001906200028392919062000323565b5082600060090190805190602001906200029f92919062000323565b50816000600a019080519060200190620002bb92919062000323565b506000600c819055506000600d819055506000600f8190555060006010819055506000601160006101000a81548160ff0219169083151502179055506000601160016101000a81548160ff0219169083151502179055505050505050505050505050620008b7565b82805462000331906200077a565b90600052602060002090601f016020900481019282620003555760008555620003a1565b82601f106200037057805160ff1916838001178555620003a1565b82800160010185558215620003a1579182015b82811115620003a057825182559160200191906001019062000383565b5b509050620003b09190620003b4565b5090565b5b80821115620003cf576000816000905550600101620003b5565b5090565b6000620003ea620003e484620006c4565b6200069b565b90508281526020810184848401111562000409576200040862000849565b5b6200041684828562000744565b509392505050565b6000815190506200042f8162000869565b92915050565b600081519050620004468162000883565b92915050565b600082601f83011262000464576200046362000844565b5b815162000476848260208601620003d3565b91505092915050565b60008151905062000490816200089d565b92915050565b60008060008060008060008060008060006101608c8e031215620004bf57620004be62000853565b5b60008c015167ffffffffffffffff811115620004e057620004df6200084e565b5b620004ee8e828f016200044c565b9b505060208c015167ffffffffffffffff8111156200051257620005116200084e565b5b620005208e828f016200044c565b9a50506040620005338e828f016200047f565b99505060608c015167ffffffffffffffff8111156200055757620005566200084e565b5b620005658e828f016200044c565b98505060808c015167ffffffffffffffff8111156200058957620005886200084e565b5b620005978e828f016200044c565b97505060a0620005aa8e828f0162000435565b96505060c08c015167ffffffffffffffff811115620005ce57620005cd6200084e565b5b620005dc8e828f016200044c565b95505060e08c015167ffffffffffffffff8111156200060057620005ff6200084e565b5b6200060e8e828f016200044c565b9450506101008c015167ffffffffffffffff8111156200063357620006326200084e565b5b620006418e828f016200044c565b9350506101208c015167ffffffffffffffff8111156200066657620006656200084e565b5b620006748e828f016200044c565b925050610140620006888e828f016200041e565b9150509295989b509295989b9093969950565b6000620006a7620006ba565b9050620006b58282620007b0565b919050565b6000604051905090565b600067ffffffffffffffff821115620006e257620006e162000815565b5b620006ed8262000858565b9050602081019050919050565b600062000707826200071a565b9050919050565b60008115159050919050565b600073ffffffffffffffffffffffffffffffffffffffff82169050919050565b6000819050919050565b60005b838110156200076457808201518184015260208101905062000747565b8381111562000774576000848401525b50505050565b600060028204905060018216806200079357607f821691505b60208210811415620007aa57620007a9620007e6565b5b50919050565b620007bb8262000858565b810181811067ffffffffffffffff82111715620007dd57620007dc62000815565b5b80604052505050565b7f4e487b7100000000000000000000000000000000000000000000000000000000600052602260045260246000fd5b7f4e487b7100000000000000000000000000000000000000000000000000000000600052604160045260246000fd5b600080fd5b600080fd5b600080fd5b600080fd5b6000601f19601f8301169050919050565b6200087481620006fa565b81146200088057600080fd5b50565b6200088e816200070e565b81146200089a57600080fd5b50565b620008a8816200073a565b8114620008b457600080fd5b50565b6146ce80620008c76000396000f3fe6080604052600436106101d85760003560e01c806381d12c5811610102578063a394c3a611610095578063c2fbe7bc11610064578063c2fbe7bc146106ef578063ce845d1d14610706578063d7d1bbdb14610731578063eb9db01f1461075a576101d8565b8063a394c3a614610647578063ab4e6c6d14610670578063b2d5ae44146106ad578063bef4876b146106c4576101d8565b80638ff0d054116100d15780638ff0d054146105895780639a82a09a146105c65780639a96f829146105f15780639fb42b1f1461061c576101d8565b806381d12c581461049a57806382fde093146104e25780638a241f4c1461050d5780638ee36f051461054c576101d8565b80635026d63e1161017a578063738e6d7811610149578063738e6d78146103de5780637569b3d71461041b57806379f96c57146104465780637be441d11461046f576101d8565b80635026d63e146103345780635beac7a71461035f57806369788c8e1461038a5780636d052b37146103a1576101d8565b8063139ff11d116101b6578063139ff11d1461026e5780631f6d49421461029e57806340656963146102db57806342e94c90146102f7576101d8565b806302d05d3f146101dd57806303441006146102085780630a14439114610231575b600080fd5b3480156101e957600080fd5b506101f2610783565b6040516101ff919061389e565b60405180910390f35b34801561021457600080fd5b5061022f600480360381019061022a9190613298565b6107a9565b005b34801561023d57600080fd5b5061025860048036038101906102539190613087565b610b49565b6040516102659190613919565b60405180910390f35b34801561027a57600080fd5b50610283610b69565b60405161029596959493929190613d27565b60405180910390f35b3480156102aa57600080fd5b506102c560048036038101906102c09190613087565b610bd6565b6040516102d29190613919565b60405180910390f35b6102f560048036038101906102f091906130f4565b610bf6565b005b34801561030357600080fd5b5061031e60048036038101906103199190613087565b610df5565b60405161032b9190613b9a565b60405180910390f35b34801561034057600080fd5b50610349610e0d565b6040516103569190613b9a565b60405180910390f35b34801561036b57600080fd5b50610374610e13565b6040516103819190613b56565b60405180910390f35b34801561039657600080fd5b5061039f611339565b005b3480156103ad57600080fd5b506103c860048036038101906103c39190613298565b6114cc565b6040516103d59190613b78565b60405180910390f35b3480156103ea57600080fd5b5061040560048036038101906104009190613087565b6118c0565b6040516104129190613b9a565b60405180910390f35b34801561042757600080fd5b50610430611a29565b60405161043d9190613b9a565b60405180910390f35b34801561045257600080fd5b5061046d60048036038101906104689190613298565b611a2f565b005b34801561047b57600080fd5b50610484611c64565b6040516104919190613b9a565b60405180910390f35b3480156104a657600080fd5b506104c160048036038101906104bc9190613298565b611cfe565b6040516104d99c9b9a99989796959493929190613be5565b60405180910390f35b3480156104ee57600080fd5b506104f7612040565b6040516105049190613b9a565b60405180910390f35b34801561051957600080fd5b50610534600480360381019061052f9190613298565b612046565b60405161054393929190613cf0565b60405180910390f35b34801561055857600080fd5b50610573600480360381019061056e91906130b4565b61207c565b6040516105809190613919565b60405180910390f35b34801561059557600080fd5b506105b060048036038101906105ab919061316a565b612181565b6040516105bd9190613b9a565b60405180910390f35b3480156105d257600080fd5b506105db6123a6565b6040516105e89190613919565b60405180910390f35b3480156105fd57600080fd5b506106066123b9565b604051610613919061389e565b60405180910390f35b34801561062857600080fd5b506106316123df565b60405161063e9190613b9a565b60405180910390f35b34801561065357600080fd5b5061066e60048036038101906106699190613121565b6123e5565b005b34801561067c57600080fd5b5061069760048036038101906106929190613087565b61256a565b6040516106a4919061389e565b60405180910390f35b3480156106b957600080fd5b506106c2612667565b005b3480156106d057600080fd5b506106d9612902565b6040516106e69190613919565b60405180910390f35b3480156106fb57600080fd5b50610704612915565b005b34801561071257600080fd5b5061071b612a65565b6040516107289190613b9a565b60405180910390f35b34801561073d57600080fd5b5061075860048036038101906107539190613298565b612a6b565b005b34801561076657600080fd5b50610781600480360381019061077c91906132c5565b612ca0565b005b600b60009054906101000a900473ffffffffffffffffffffffffffffffffffffffff1681565b600b60009054906101000a900473ffffffffffffffffffffffffffffffffffffffff1673ffffffffffffffffffffffffffffffffffffffff163373ffffffffffffffffffffffffffffffffffffffff1614610839576040517f08c379a0000000000000000000000000000000000000000000000000000000008152600401610830906139b6565b60405180910390fd5b600060146000838152602001908152602001600020905080600a0160009054906101000a900460ff16156108a2576040517f08c379a000000000000000000000000000000000000000000000000000000000815260040161089990613b16565b60405180910390fd5b8060050160149054906101000a900460ff16156108f4576040517f08c379a00000000000000000000000000000000000000000000000000000000081526004016108eb90613956565b60405180910390fd5b8060040154600c54101561093d576040517f08c379a000000000000000000000000000000000000000000000000000000000815260040161093490613ad6565b60405180910390fd5b6002600f5461094c9190613e61565b816006015411610991576040517f08c379a0000000000000000000000000000000000000000000000000000000008152600401610988906139d6565b60405180910390fd5b601960009054906101000a900460ff16156109e1576040517f08c379a00000000000000000000000000000000000000000000000000000000081526004016109d890613a56565b60405180910390fd5b6001601960006101000a81548160ff0219169083151502179055506000610a1082600401546005612710612e06565b90506000826004015490508181610a279190613eec565b90508260040154600c6000828254610a3f9190613eec565b925050819055506000836004018190555081600e6000828254610a629190613e0b565b9250508190555060018360050160146101000a81548160ff0219169083151502179055508260050160009054906101000a900473ffffffffffffffffffffffffffffffffffffffff1673ffffffffffffffffffffffffffffffffffffffff166108fc829081150290604051600060405180830381858888f19350505050158015610af0573d6000803e3d6000fd5b506000601960006101000a81548160ff0219169083151502179055507fbd4b6d8fe937b68fec69985b01c1e12a7ec4af495b0e3f1cbe6c7faf803da00c84604051610b3b9190613b9a565b60405180910390a150505050565b60126020528060005260406000206000915054906101000a900460ff1681565b6000806000806000806000600c5490506000600d5490506000600f549050600060105490506000601160009054906101000a900460ff1690506000601160019054906101000a900460ff1690508585858585859b509b509b509b509b509b50505050505050909192939495565b60176020528060005260406000206000915054906101000a900460ff1681565b6000610c06346005612710612e06565b905060003490508181610c199190613eec565b905080600c6000828254610c2d9190613e0b565b9250508190555080600d6000828254610c469190613e0b565b9250508190555081600e6000828254610c5f9190613e0b565b925050819055506000600501543410610db757600115158315151415610cf0576001601260003373ffffffffffffffffffffffffffffffffffffffff1673ffffffffffffffffffffffffffffffffffffffff16815260200190815260200160002060006101000a81548160ff021916908315150217905550600f6000815480929190610cea9061401f565b91905055505b80601860003373ffffffffffffffffffffffffffffffffffffffff1673ffffffffffffffffffffffffffffffffffffffff1681526020019081526020016000206000828254610d3f9190613e0b565b9250508190555060106000815480929190610d599061401f565b91905055506001601760003373ffffffffffffffffffffffffffffffffffffffff1673ffffffffffffffffffffffffffffffffffffffff16815260200190815260200160002060006101000a81548160ff0219169083151502179055505b7f62722348256371b5147820d6cad90c40fd2da1ccee18c3ed52c0bca5a61dbbab3334604051610de89291906138b9565b60405180910390a1505050565b60186020528060005260406000206000915090505481565b600d5481565b610e1b612e33565b6000604051806101600160405290816000820160009054906101000a900473ffffffffffffffffffffffffffffffffffffffff1673ffffffffffffffffffffffffffffffffffffffff1673ffffffffffffffffffffffffffffffffffffffff168152602001600182018054610e8f90613fbc565b80601f0160208091040260200160405190810160405280929190818152602001828054610ebb90613fbc565b8015610f085780601f10610edd57610100808354040283529160200191610f08565b820191906000526020600020905b815481529060010190602001808311610eeb57829003601f168201915b50505050508152602001600282018054610f2190613fbc565b80601f0160208091040260200160405190810160405280929190818152602001828054610f4d90613fbc565b8015610f9a5780601f10610f6f57610100808354040283529160200191610f9a565b820191906000526020600020905b815481529060010190602001808311610f7d57829003601f168201915b50505050508152602001600382018054610fb390613fbc565b80601f0160208091040260200160405190810160405280929190818152602001828054610fdf90613fbc565b801561102c5780601f106110015761010080835404028352916020019161102c565b820191906000526020600020905b81548152906001019060200180831161100f57829003601f168201915b5050505050815260200160048201805461104590613fbc565b80601f016020809104026020016040519081016040528092919081815260200182805461107190613fbc565b80156110be5780601f10611093576101008083540402835291602001916110be565b820191906000526020600020905b8154815290600101906020018083116110a157829003601f168201915b50505050508152602001600582015481526020016006820160009054906101000a900460ff161515151581526020016007820180546110fc90613fbc565b80601f016020809104026020016040519081016040528092919081815260200182805461112890613fbc565b80156111755780601f1061114a57610100808354040283529160200191611175565b820191906000526020600020905b81548152906001019060200180831161115857829003601f168201915b5050505050815260200160088201805461118e90613fbc565b80601f01602080910402602001604051908101604052809291908181526020018280546111ba90613fbc565b80156112075780601f106111dc57610100808354040283529160200191611207565b820191906000526020600020905b8154815290600101906020018083116111ea57829003601f168201915b5050505050815260200160098201805461122090613fbc565b80601f016020809104026020016040519081016040528092919081815260200182805461124c90613fbc565b80156112995780601f1061126e57610100808354040283529160200191611299565b820191906000526020600020905b81548152906001019060200180831161127c57829003601f168201915b50505050508152602001600a820180546112b290613fbc565b80601f01602080910402602001604051908101604052809291908181526020018280546112de90613fbc565b801561132b5780601f106113005761010080835404028352916020019161132b565b820191906000526020600020905b81548152906001019060200180831161130e57829003601f168201915b505050505081525050905090565b600b60009054906101000a900473ffffffffffffffffffffffffffffffffffffffff1673ffffffffffffffffffffffffffffffffffffffff163373ffffffffffffffffffffffffffffffffffffffff16146113c9576040517f08c379a00000000000000000000000000000000000000000000000000000000081526004016113c0906139b6565b60405180910390fd5b601160009054906101000a900460ff1615611419576040517f08c379a000000000000000000000000000000000000000000000000000000000815260040161141090613ab6565b60405180910390fd5b601160019054906101000a900460ff1615611469576040517f08c379a0000000000000000000000000000000000000000000000000000000008152600401611460906139f6565b60405180910390fd5b6001601160016101000a81548160ff0219169083151502179055507f228bde8d7b3e6d4daac3ece35c4b1678d183c118eacf7a2e50767e7ec667dfc8600c54600d546114b59190613eec565b6040516114c29190613cc2565b60405180910390a1565b6114d4612ea5565b60006014600084815260200190815260200160002090506114f3612ea5565b816000015481600001818152505081600101805461151090613fbc565b80601f016020809104026020016040519081016040528092919081815260200182805461153c90613fbc565b80156115895780601f1061155e57610100808354040283529160200191611589565b820191906000526020600020905b81548152906001019060200180831161156c57829003601f168201915b505050505081602001819052508160020180546115a590613fbc565b80601f01602080910402602001604051908101604052809291908181526020018280546115d190613fbc565b801561161e5780601f106115f35761010080835404028352916020019161161e565b820191906000526020600020905b81548152906001019060200180831161160157829003601f168201915b5050505050816040018190525081600301805461163a90613fbc565b80601f016020809104026020016040519081016040528092919081815260200182805461166690613fbc565b80156116b35780601f10611688576101008083540402835291602001916116b3565b820191906000526020600020905b81548152906001019060200180831161169657829003601f168201915b5050505050816060018190525081600401548160800181815250508160050160009054906101000a900473ffffffffffffffffffffffffffffffffffffffff168160a0019073ffffffffffffffffffffffffffffffffffffffff16908173ffffffffffffffffffffffffffffffffffffffff16815250508160050160149054906101000a900460ff168160c001901515908115158152505081600601548160e001818152505081600701548161010001818152505081600801805461177790613fbc565b80601f01602080910402602001604051908101604052809291908181526020018280546117a390613fbc565b80156117f05780601f106117c5576101008083540402835291602001916117f0565b820191906000526020600020905b8154815290600101906020018083116117d357829003601f168201915b505050505081610120018190525081600901805461180d90613fbc565b80601f016020809104026020016040519081016040528092919081815260200182805461183990613fbc565b80156118865780601f1061185b57610100808354040283529160200191611886565b820191906000526020600020905b81548152906001019060200180831161186957829003601f168201915b505050505081610140018190525081600a0160009054906101000a900460ff16816101600190151590811515815250508092505050919050565b6000601760008373ffffffffffffffffffffffffffffffffffffffff1673ffffffffffffffffffffffffffffffffffffffff16815260200190815260200160002060009054906101000a900460ff1661194e576040517f08c379a000000000000000000000000000000000000000000000000000000000815260040161194590613af6565b60405180910390fd5b60011515601160019054906101000a900460ff1615151480611983575060011515601160009054906101000a900460ff161515145b6119c2576040517f08c379a00000000000000000000000000000000000000000000000000000000081526004016119b990613996565b60405180910390fd5b601860008373ffffffffffffffffffffffffffffffffffffffff1673ffffffffffffffffffffffffffffffffffffffff168152602001908152602001600020549050600c5481611a129190613e92565b9050600d5481611a229190613e61565b9050919050565b60105481565b6000601460008381526020019081526020016000209050601260003373ffffffffffffffffffffffffffffffffffffffff1673ffffffffffffffffffffffffffffffffffffffff16815260200190815260200160002060009054906101000a900460ff16611ad2576040517f08c379a0000000000000000000000000000000000000000000000000000000008152600401611ac990613a76565b60405180910390fd5b80600a0160009054906101000a900460ff1615611b24576040517f08c379a0000000000000000000000000000000000000000000000000000000008152600401611b1b90613b16565b60405180910390fd5b8060050160149054906101000a900460ff1615611b76576040517f08c379a0000000000000000000000000000000000000000000000000000000008152600401611b6d90613976565b60405180910390fd5b611b80338361207c565b15611bc0576040517f08c379a0000000000000000000000000000000000000000000000000000000008152600401611bb790613a36565b60405180910390fd5b806007016000815480929190611bd59061401f565b9190505550600281600b0160003373ffffffffffffffffffffffffffffffffffffffff1673ffffffffffffffffffffffffffffffffffffffff168152602001908152602001600020819055507fd8c0741cd95f4e648a7d4557b5784a862cc1cedadd79801b595fbea90e3533f733838360070154604051611c58939291906138e2565b60405180910390a15050565b6000601560009054906101000a900473ffffffffffffffffffffffffffffffffffffffff1673ffffffffffffffffffffffffffffffffffffffff163373ffffffffffffffffffffffffffffffffffffffff1614611cf6576040517f08c379a0000000000000000000000000000000000000000000000000000000008152600401611ced90613a96565b60405180910390fd5b600e54905090565b6014602052806000526040600020600091509050806000015490806001018054611d2790613fbc565b80601f0160208091040260200160405190810160405280929190818152602001828054611d5390613fbc565b8015611da05780601f10611d7557610100808354040283529160200191611da0565b820191906000526020600020905b815481529060010190602001808311611d8357829003601f168201915b505050505090806002018054611db590613fbc565b80601f0160208091040260200160405190810160405280929190818152602001828054611de190613fbc565b8015611e2e5780601f10611e0357610100808354040283529160200191611e2e565b820191906000526020600020905b815481529060010190602001808311611e1157829003601f168201915b505050505090806003018054611e4390613fbc565b80601f0160208091040260200160405190810160405280929190818152602001828054611e6f90613fbc565b8015611ebc5780601f10611e9157610100808354040283529160200191611ebc565b820191906000526020600020905b815481529060010190602001808311611e9f57829003601f168201915b5050505050908060040154908060050160009054906101000a900473ffffffffffffffffffffffffffffffffffffffff16908060050160149054906101000a900460ff1690806006015490806007015490806008018054611f1c90613fbc565b80601f0160208091040260200160405190810160405280929190818152602001828054611f4890613fbc565b8015611f955780601f10611f6a57610100808354040283529160200191611f95565b820191906000526020600020905b815481529060010190602001808311611f7857829003601f168201915b505050505090806009018054611faa90613fbc565b80601f0160208091040260200160405190810160405280929190818152602001828054611fd690613fbc565b80156120235780601f10611ff857610100808354040283529160200191612023565b820191906000526020600020905b81548152906001019060200180831161200657829003601f168201915b50505050509080600a0160009054906101000a900460ff1690508c565b600f5481565b60008060008060146000868152602001908152602001600020905080600601548160070154600f54935093509350509193909250565b6000601260008473ffffffffffffffffffffffffffffffffffffffff1673ffffffffffffffffffffffffffffffffffffffff16815260200190815260200160002060009054906101000a900460ff1661210a576040517f08c379a000000000000000000000000000000000000000000000000000000000815260040161210190613b36565b60405180910390fd5b6000601460008481526020019081526020016000209050600081600b0160008673ffffffffffffffffffffffffffffffffffffffff1673ffffffffffffffffffffffffffffffffffffffff16815260200190815260200160002054141561217557600091505061217b565b60019150505b92915050565b6000600b60009054906101000a900473ffffffffffffffffffffffffffffffffffffffff1673ffffffffffffffffffffffffffffffffffffffff163373ffffffffffffffffffffffffffffffffffffffff1614612213576040517f08c379a000000000000000000000000000000000000000000000000000000000815260040161220a906139b6565b60405180910390fd5b601360008154809291906122269061401f565b919050559050600060146000838152602001908152602001600020905081816000018190555088816001019080519060200190612264929190612f20565b508781600201908051906020019061227d929190612f20565b50868160040181905550848160050160006101000a81548173ffffffffffffffffffffffffffffffffffffffff021916908373ffffffffffffffffffffffffffffffffffffffff160217905550858160030190805190602001906122e2929190612f20565b50838160080190805190602001906122fb929190612f20565b5082816009019080519060200190612314929190612f20565b5060008160050160146101000a81548160ff0219169083151502179055506000816006018190555060008160070181905550600081600a0160006101000a81548160ff0219169083151502179055507fa56ff5af4615f68b6691437c1c71588277670ee3aa965a731cc319e5ef0ac71c826040516123929190613b9a565b60405180910390a150979650505050505050565b601160009054906101000a900460ff1681565b601560009054906101000a900473ffffffffffffffffffffffffffffffffffffffff1681565b60135481565b600b60009054906101000a900473ffffffffffffffffffffffffffffffffffffffff1673ffffffffffffffffffffffffffffffffffffffff163373ffffffffffffffffffffffffffffffffffffffff1614612475576040517f08c379a000000000000000000000000000000000000000000000000000000000815260040161246c906139b6565b60405180910390fd5b601160009054906101000a900460ff16156124c5576040517f08c379a00000000000000000000000000000000000000000000000000000000081526004016124bc90613ab6565b60405180910390fd5b601160019054906101000a900460ff1615612515576040517f08c379a000000000000000000000000000000000000000000000000000000000815260040161250c906139f6565b60405180910390fd5b6001601160006101000a81548160ff0219169083151502179055507f739de6489fb6bd59f9572597d4a03fe6e7c81556c531378bda06e66475dc637d8160405161255f9190613934565b60405180910390a150565b6000601560009054906101000a900473ffffffffffffffffffffffffffffffffffffffff1673ffffffffffffffffffffffffffffffffffffffff163373ffffffffffffffffffffffffffffffffffffffff16146125fc576040517f08c379a00000000000000000000000000000000000000000000000000000000081526004016125f390613a96565b60405180910390fd5b81601560006101000a81548173ffffffffffffffffffffffffffffffffffffffff021916908373ffffffffffffffffffffffffffffffffffffffff160217905550601560009054906101000a900473ffffffffffffffffffffffffffffffffffffffff169050919050565b601760003373ffffffffffffffffffffffffffffffffffffffff1673ffffffffffffffffffffffffffffffffffffffff16815260200190815260200160002060009054906101000a900460ff166126f3576040517f08c379a00000000000000000000000000000000000000000000000000000000081526004016126ea90613af6565b60405180910390fd5b60011515601160019054906101000a900460ff1615151480612728575060011515601160009054906101000a900460ff161515145b612767576040517f08c379a000000000000000000000000000000000000000000000000000000000815260040161275e90613996565b60405180910390fd5b6000601860003373ffffffffffffffffffffffffffffffffffffffff1673ffffffffffffffffffffffffffffffffffffffff16815260200190815260200160002054116127b357600080fd5b6000601860003373ffffffffffffffffffffffffffffffffffffffff1673ffffffffffffffffffffffffffffffffffffffff1681526020019081526020016000205490506000600c54826128079190613e92565b9050600d54816128179190613e61565b90506000612829826005612710612e06565b90506000601860003373ffffffffffffffffffffffffffffffffffffffff1673ffffffffffffffffffffffffffffffffffffffff1681526020019081526020016000208190555081600c60008282546128829190613eec565b9250508190555080600e600082825461289b9190613e0b565b9250508190555080826128ae9190613eec565b915060003390508073ffffffffffffffffffffffffffffffffffffffff166108fc849081150290604051600060405180830381858888f193505050501580156128fb573d6000803e3d6000fd5b5050505050565b601160019054906101000a900460ff1681565b601560009054906101000a900473ffffffffffffffffffffffffffffffffffffffff1673ffffffffffffffffffffffffffffffffffffffff163373ffffffffffffffffffffffffffffffffffffffff16146129a5576040517f08c379a000000000000000000000000000000000000000000000000000000000815260040161299c90613a96565b60405180910390fd5b6000600e54116129ea576040517f08c379a00000000000000000000000000000000000000000000000000000000081526004016129e190613a16565b60405180910390fd5b6000600e5490506000600e81905550601660009054906101000a900473ffffffffffffffffffffffffffffffffffffffff1673ffffffffffffffffffffffffffffffffffffffff166108fc829081150290604051600060405180830381858888f19350505050158015612a61573d6000803e3d6000fd5b5050565b600c5481565b6000601460008381526020019081526020016000209050601260003373ffffffffffffffffffffffffffffffffffffffff1673ffffffffffffffffffffffffffffffffffffffff16815260200190815260200160002060009054906101000a900460ff16612b0e576040517f08c379a0000000000000000000000000000000000000000000000000000000008152600401612b0590613a76565b60405180910390fd5b80600a0160009054906101000a900460ff1615612b60576040517f08c379a0000000000000000000000000000000000000000000000000000000008152600401612b5790613b16565b60405180910390fd5b8060050160149054906101000a900460ff1615612bb2576040517f08c379a0000000000000000000000000000000000000000000000000000000008152600401612ba990613976565b60405180910390fd5b612bbc338361207c565b15612bfc576040517f08c379a0000000000000000000000000000000000000000000000000000000008152600401612bf390613a36565b60405180910390fd5b806006016000815480929190612c119061401f565b9190505550600181600b0160003373ffffffffffffffffffffffffffffffffffffffff1673ffffffffffffffffffffffffffffffffffffffff168152602001908152602001600020819055507fc722aeb354db7ce1dfb5f05d6537417c8b86b0e254d60ad3835a1b155862a42a33838360060154604051612c94939291906138e2565b60405180910390a15050565b600b60009054906101000a900473ffffffffffffffffffffffffffffffffffffffff1673ffffffffffffffffffffffffffffffffffffffff163373ffffffffffffffffffffffffffffffffffffffff1614612d30576040517f08c379a0000000000000000000000000000000000000000000000000000000008152600401612d27906139b6565b60405180910390fd5b60146000838152602001908152602001600020600a0160009054906101000a900460ff1615612d94576040517f08c379a0000000000000000000000000000000000000000000000000000000008152600401612d8b90613b16565b60405180910390fd5b6000601460008481526020019081526020016000209050600181600a0160006101000a81548160ff0219169083151502179055507fd27e3d9a9ae0fb728bfbdb457c9b09290886c043b331b9995192cc7f7129c9b18383604051612df9929190613bb5565b60405180910390a1505050565b6000808490508381612e189190613e92565b90508281612e269190613e61565b9050809150509392505050565b604051806101600160405280600073ffffffffffffffffffffffffffffffffffffffff1681526020016060815260200160608152602001606081526020016060815260200160008152602001600015158152602001606081526020016060815260200160608152602001606081525090565b6040518061018001604052806000815260200160608152602001606081526020016060815260200160008152602001600073ffffffffffffffffffffffffffffffffffffffff168152602001600015158152602001600081526020016000815260200160608152602001606081526020016000151581525090565b828054612f2c90613fbc565b90600052602060002090601f016020900481019282612f4e5760008555612f95565b82601f10612f6757805160ff1916838001178555612f95565b82800160010185558215612f95579182015b82811115612f94578251825591602001919060010190612f79565b5b509050612fa29190612fa6565b5090565b5b80821115612fbf576000816000905550600101612fa7565b5090565b6000612fd6612fd184613dad565b613d88565b905082815260208101848484011115612ff257612ff1614129565b5b612ffd848285613f7a565b509392505050565b6000813590506130148161463c565b92915050565b60008135905061302981614653565b92915050565b60008135905061303e8161466a565b92915050565b600082601f83011261305957613058614124565b5b8135613069848260208601612fc3565b91505092915050565b60008135905061308181614681565b92915050565b60006020828403121561309d5761309c614133565b5b60006130ab84828501613005565b91505092915050565b600080604083850312156130cb576130ca614133565b5b60006130d985828601613005565b92505060206130ea85828601613072565b9150509250929050565b60006020828403121561310a57613109614133565b5b60006131188482850161302f565b91505092915050565b60006020828403121561313757613136614133565b5b600082013567ffffffffffffffff8111156131555761315461412e565b5b61316184828501613044565b91505092915050565b600080600080600080600060e0888a03121561318957613188614133565b5b600088013567ffffffffffffffff8111156131a7576131a661412e565b5b6131b38a828b01613044565b975050602088013567ffffffffffffffff8111156131d4576131d361412e565b5b6131e08a828b01613044565b96505060406131f18a828b01613072565b955050606088013567ffffffffffffffff8111156132125761321161412e565b5b61321e8a828b01613044565b945050608061322f8a828b0161301a565b93505060a088013567ffffffffffffffff8111156132505761324f61412e565b5b61325c8a828b01613044565b92505060c088013567ffffffffffffffff81111561327d5761327c61412e565b5b6132898a828b01613044565b91505092959891949750929550565b6000602082840312156132ae576132ad614133565b5b60006132bc84828501613072565b91505092915050565b600080604083850312156132dc576132db614133565b5b60006132ea85828601613072565b925050602083013567ffffffffffffffff81111561330b5761330a61412e565b5b61331785828601613044565b9150509250929050565b61332a81613f32565b82525050565b61333981613f32565b82525050565b61334881613f20565b82525050565b61335781613f20565b82525050565b61336681613f44565b82525050565b61337581613f44565b82525050565b600061338682613dde565b6133908185613de9565b93506133a0818560208601613f89565b6133a981614138565b840191505092915050565b60006133bf82613dde565b6133c98185613dfa565b93506133d9818560208601613f89565b6133e281614138565b840191505092915050565b60006133fa602783613dfa565b915061340582614149565b604082019050919050565b600061341d602c83613dfa565b915061342882614198565b604082019050919050565b6000613440606183613dfa565b915061344b826141e7565b608082019050919050565b6000613463602383613dfa565b915061346e82614282565b604082019050919050565b6000613486604583613dfa565b9150613491826142d1565b606082019050919050565b60006134a9602583613dfa565b91506134b482614346565b604082019050919050565b60006134cc601a83613dfa565b91506134d782614395565b602082019050919050565b60006134ef601683613dfa565b91506134fa826143be565b602082019050919050565b6000613512601983613dfa565b915061351d826143e7565b602082019050919050565b6000613535602f83613dfa565b915061354082614410565b604082019050919050565b6000613558603683613dfa565b91506135638261445f565b604082019050919050565b600061357b602883613dfa565b9150613586826144ae565b604082019050919050565b600061359e603683613dfa565b91506135a9826144fd565b604082019050919050565b60006135c1603583613dfa565b91506135cc8261454c565b604082019050919050565b60006135e4603883613dfa565b91506135ef8261459b565b604082019050919050565b6000613607601e83613dfa565b9150613612826145ea565b602082019050919050565b600061362a601d83613dfa565b915061363582614613565b602082019050919050565b600061016083016000830151613659600086018261333f565b5060208301518482036020860152613671828261337b565b9150506040830151848203604086015261368b828261337b565b915050606083015184820360608601526136a5828261337b565b915050608083015184820360808601526136bf828261337b565b91505060a08301516136d460a0860182613880565b5060c08301516136e760c086018261335d565b5060e083015184820360e08601526136ff828261337b565b91505061010083015184820361010086015261371b828261337b565b915050610120830151848203610120860152613737828261337b565b915050610140830151848203610140860152613753828261337b565b9150508091505092915050565b6000610180830160008301516137796000860182613880565b5060208301518482036020860152613791828261337b565b915050604083015184820360408601526137ab828261337b565b915050606083015184820360608601526137c5828261337b565b91505060808301516137da6080860182613880565b5060a08301516137ed60a0860182613321565b5060c083015161380060c086018261335d565b5060e083015161381360e0860182613880565b50610100830151613828610100860182613880565b50610120830151848203610120860152613842828261337b565b91505061014083015184820361014086015261385e828261337b565b91505061016083015161387561016086018261335d565b508091505092915050565b61388981613f70565b82525050565b61389881613f70565b82525050565b60006020820190506138b3600083018461334e565b92915050565b60006040820190506138ce600083018561334e565b6138db602083018461388f565b9392505050565b60006060820190506138f7600083018661334e565b613904602083018561388f565b613911604083018461388f565b949350505050565b600060208201905061392e600083018461336c565b92915050565b6000602082019050818103600083015261394e81846133b4565b905092915050565b6000602082019050818103600083015261396f816133ed565b9050919050565b6000602082019050818103600083015261398f81613410565b9050919050565b600060208201905081810360008301526139af81613433565b9050919050565b600060208201905081810360008301526139cf81613456565b9050919050565b600060208201905081810360008301526139ef81613479565b9050919050565b60006020820190508181036000830152613a0f8161349c565b9050919050565b60006020820190508181036000830152613a2f816134bf565b9050919050565b60006020820190508181036000830152613a4f816134e2565b9050919050565b60006020820190508181036000830152613a6f81613505565b9050919050565b60006020820190508181036000830152613a8f81613528565b9050919050565b60006020820190508181036000830152613aaf8161354b565b9050919050565b60006020820190508181036000830152613acf8161356e565b9050919050565b60006020820190508181036000830152613aef81613591565b9050919050565b60006020820190508181036000830152613b0f816135b4565b9050919050565b60006020820190508181036000830152613b2f816135d7565b9050919050565b60006020820190508181036000830152613b4f816135fa565b9050919050565b60006020820190508181036000830152613b708184613640565b905092915050565b60006020820190508181036000830152613b928184613760565b905092915050565b6000602082019050613baf600083018461388f565b92915050565b6000604082019050613bca600083018561388f565b8181036020830152613bdc81846133b4565b90509392505050565b600061018082019050613bfb600083018f61388f565b8181036020830152613c0d818e6133b4565b90508181036040830152613c21818d6133b4565b90508181036060830152613c35818c6133b4565b9050613c44608083018b61388f565b613c5160a083018a613330565b613c5e60c083018961336c565b613c6b60e083018861388f565b613c7961010083018761388f565b818103610120830152613c8c81866133b4565b9050818103610140830152613ca181856133b4565b9050613cb161016083018461336c565b9d9c50505050505050505050505050565b6000604082019050613cd7600083018461388f565b8181036020830152613ce88161361d565b905092915050565b6000606082019050613d05600083018661388f565b613d12602083018561388f565b613d1f604083018461388f565b949350505050565b600060c082019050613d3c600083018961388f565b613d49602083018861388f565b613d56604083018761388f565b613d63606083018661388f565b613d70608083018561336c565b613d7d60a083018461336c565b979650505050505050565b6000613d92613da3565b9050613d9e8282613fee565b919050565b6000604051905090565b600067ffffffffffffffff821115613dc857613dc76140f5565b5b613dd182614138565b9050602081019050919050565b600081519050919050565b600082825260208201905092915050565b600082825260208201905092915050565b6000613e1682613f70565b9150613e2183613f70565b9250827fffffffffffffffffffffffffffffffffffffffffffffffffffffffffffffffff03821115613e5657613e55614068565b5b828201905092915050565b6000613e6c82613f70565b9150613e7783613f70565b925082613e8757613e86614097565b5b828204905092915050565b6000613e9d82613f70565b9150613ea883613f70565b9250817fffffffffffffffffffffffffffffffffffffffffffffffffffffffffffffffff0483118215151615613ee157613ee0614068565b5b828202905092915050565b6000613ef782613f70565b9150613f0283613f70565b925082821015613f1557613f14614068565b5b828203905092915050565b6000613f2b82613f50565b9050919050565b6000613f3d82613f50565b9050919050565b60008115159050919050565b600073ffffffffffffffffffffffffffffffffffffffff82169050919050565b6000819050919050565b82818337600083830152505050565b60005b83811015613fa7578082015181840152602081019050613f8c565b83811115613fb6576000848401525b50505050565b60006002820490506001821680613fd457607f821691505b60208210811415613fe857613fe76140c6565b5b50919050565b613ff782614138565b810181811067ffffffffffffffff82111715614016576140156140f5565b5b80604052505050565b600061402a82613f70565b91507fffffffffffffffffffffffffffffffffffffffffffffffffffffffffffffffff82141561405d5761405c614068565b5b600182019050919050565b7f4e487b7100000000000000000000000000000000000000000000000000000000600052601160045260246000fd5b7f4e487b7100000000000000000000000000000000000000000000000000000000600052601260045260246000fd5b7f4e487b7100000000000000000000000000000000000000000000000000000000600052602260045260246000fd5b7f4e487b7100000000000000000000000000000000000000000000000000000000600052604160045260246000fd5b600080fd5b600080fd5b600080fd5b600080fd5b6000601f19601f8301169050919050565b7f56656e646f72206973207061696420616c726561647920666f7220746869732060008201527f7265717565737400000000000000000000000000000000000000000000000000602082015250565b7f5265717565737420616c726561647920636f6d706c6574656420616e6420766560008201527f6e646f7220697320706169640000000000000000000000000000000000000000602082015250565b7f596f752063616e206f6e6c792074616b6520726566756e64206166746572207460008201527f68652070726f6a6563742069732066696e6973686564206f6e2063616e63656c60208201527f6c6564206279207468652063726561746f72206f66207468652070726f6a656360408201527f7400000000000000000000000000000000000000000000000000000000000000606082015250565b7f4f6e6c792043726561746f722063616e2063616c6c20746869732066756e637460008201527f696f6e0000000000000000000000000000000000000000000000000000000000602082015250565b7f526571756972657320617070726f76616c732066726f6d206174206c6561737460008201527f206d6f7265207468616e2068616c66206f6620746f74616c20636f6e7472696260208201527f75746f7273000000000000000000000000000000000000000000000000000000604082015250565b7f50726f6a65637420616c72656164792066696e6973686564207375636365737360008201527f66756c6c79000000000000000000000000000000000000000000000000000000602082015250565b7f5468657265206973206e6f206665657320617661696c61626c65000000000000600082015250565b7f596f752063616e20766f7465206f6e6c79206f6e636500000000000000000000600082015250565b7f52652d656e7472616e742063616c6c2064657465637465642100000000000000600082015250565b7f596f75206e65656420746f20626520616e20617070726f76657220746f20617060008201527f70726f7665206120726571756573740000000000000000000000000000000000602082015250565b7f4f6e6c7920646576656c6f70657273206f6620746869732070726f6a6563742060008201527f63616e2063616c6c20746869732066756e6374696f6e00000000000000000000602082015250565b7f50726f6a65637420616c72656164792063616e63656c6c65642062792074686560008201527f2043726561746f72000000000000000000000000000000000000000000000000602082015250565b7f42616c616e636520696e20706f6f6c206d757374206265206d6f72652074686160008201527f6e207468652072657175657374656420616d6f756e7400000000000000000000602082015250565b7f596f75206d7573742068616420636f6e747269627574656420746f207468652060008201527f70726f6a65637420746f2067657420726566756e640000000000000000000000602082015250565b7f5265717565737420616c72656164792063616e63656c6c65642062792074686560008201527f2063726561746f72206f6620746869732050726f6a6563740000000000000000602082015250565b7f596f75206d757374206265206120617070726f76657220746f20766f74650000600082015250565b7f50726f6a6563742046696e6973686564205375636365737366756c6c79000000600082015250565b61464581613f20565b811461465057600080fd5b50565b61465c81613f32565b811461466757600080fd5b50565b61467381613f44565b811461467e57600080fd5b50565b61468a81613f70565b811461469557600080fd5b5056fea2646970667358221220feac6fc9f21c2a8ef2e95f7d874009084ab5456ac9d738eef05ecf34d23ae9b264736f6c63430008070033a2646970667358221220ab9548d5b843805e01e0809fcdd0243be1121c7a6b2936cc851625c4eb065cfa64736f6c63430008070033",
  "immutableReferences": {},
  "source": "// SPDX-License-Identifier: MIT\r\n\r\npragma solidity >=0.4.16 < 0.9.0;\r\n\r\nimport \"./Project.sol\";\r\n\r\ncontract ProjectCreator {\r\n    \r\n    event ProjectCreated(address _from, uint _projectIndex);\r\n    \r\n    Project [] public deployedProjects;\r\n    uint projectsCount = 0;\r\n    \r\n    function deployProject(\r\n        string memory _projectTitle, \r\n        string memory _projectDesc, \r\n        uint256 _minContributionAmount, \r\n        string memory _imgUrl, \r\n        string memory _folderUrl,\r\n        bool _isMap,\r\n        string memory _postalAddress,\r\n        string memory _latitude,\r\n        string memory _longitude,\r\n        string memory _placeName    \r\n    ) public {\r\n        \r\n        Project newProject = new Project(\r\n            _projectTitle, \r\n            _projectDesc, \r\n            _minContributionAmount, \r\n            _imgUrl, \r\n            _folderUrl, \r\n            _isMap, \r\n            _postalAddress, \r\n            _latitude,\r\n            _longitude,\r\n            _placeName,\r\n            msg.sender\r\n        );\r\n        \r\n        deployedProjects.push(newProject);\r\n        projectsCount++;\r\n        \r\n        emit ProjectCreated(msg.sender, projectsCount-1);\r\n    }\r\n    \r\n    function getDeployedProjects() public view returns(Project[] memory){\r\n        return  deployedProjects;\r\n    }\r\n}",
  "sourcePath": "D:\\Node projects\\Blockchain Apps\\BizFund\\contracts\\ProjectCreator.sol",
  "compiler": {
    "name": "solc",
    "version": "0.8.7+commit.e28d00a7.Emscripten.clang"
  },
  "schemaVersion": "3.4.3",
  "updatedAt": "2021-08-28T19:52:36.720Z",
  "networkType": "ethereum",
  "devdoc": {
    "kind": "dev",
    "methods": {},
    "version": 1
  },
  "userdoc": {
    "kind": "user",
    "methods": {},
    "version": 1
  }
}